S0100000756172745F6170702E73726563B8
S11300000C942A000C9447000C9447000C9447006D
S11300100C9447000C9447000C9447000C94470040
S11300200C9447000C9447000C9447000C94470030
S11300300C9447000C9447000C9447000C94470020
S11300400C9447000C9447000C9447000C94470010
S11300500C94470011241FBECFE5D4E0DEBFCDBF12
S113006010E0A0E6B0E0EEEFF1E002C005900D92E2
S1130070AC36B107D9F720E0ACE6B0E001C01D9280
S1130080AC36B207E1F70E94AF000C94FD000C946B
S11300900000DF98882314F4AF9A01C0AF9886FF5C
S11300A002C0AE9A01C0AE9885FF02C0AD9A01C0ED
S11300B0AD9884FF02C0AC9A01C0AC98AB9AE9EF4A
S11300C0F0E03197F1F700C00000AB98E9EFF0E001
S11300D03197F1F700C0000083FF02C0AF9A01C05E
S11300E0AF9882FF02C0AE9A01C0AE9881FF02C0F1
S11300F0AD9A01C0AD9880FF02C0AC9A01C0AC9823
S1130100AB9A89EF90E00197F1F700C00000AB983B
S1130110E9EFF0E03197F1F700C00000089584B3EF
S1130120886F84BBD79A81EE94E00197F1F700C001
S1130130000082E00E94490088E20E94490081E0B8
S11301400E9449008CE00E94490080E80E94490016
S113015087E893E10197F1F700C0000008950E9439
S11301608F000E94BC000E94C9000E94EF0080E63C
S113017090E00E94DA00FFCF539A80B5826080BD80
S113018080B5846080BD80B5806880BD83E389B913
S11301900895549A80B5826080BD80B5846080BD26
S11301A080B5806880BD83E389B908955D9BFECFE7
S11301B08CB908951F93CF93DF93EC018881882332
S11301C051F010E00E94D6001F5FFE01E10FF11D07
S11301D080818111F7CFDF91CF911F91089580B570
S11301E0826080BD80B5846080BD549A579A83E351
S11101F089B98FB780688FBF0895F894FFCF48
S10F01FE61686D656468617373616E0074
S9030000FC
